{
  "contractName": "Election",
  "abi": [
    {
      "inputs": [],
      "payable": false,
      "stateMutability": "nonpayable",
      "type": "constructor"
    },
    {
      "anonymous": false,
      "inputs": [
        {
          "indexed": false,
          "internalType": "address",
          "name": "voterAddress",
          "type": "address"
        }
      ],
      "name": "DuplicateVote",
      "type": "event"
    },
    {
      "anonymous": false,
      "inputs": [
        {
          "indexed": true,
          "internalType": "uint16",
          "name": "_id",
          "type": "uint16"
        },
        {
          "indexed": false,
          "internalType": "string",
          "name": "name",
          "type": "string"
        },
        {
          "indexed": false,
          "internalType": "address",
          "name": "candidateAddress",
          "type": "address"
        }
      ],
      "name": "NewCandidate",
      "type": "event"
    },
    {
      "anonymous": false,
      "inputs": [
        {
          "indexed": false,
          "internalType": "address",
          "name": "voterAddress",
          "type": "address"
        },
        {
          "indexed": true,
          "internalType": "uint16",
          "name": "votedFor",
          "type": "uint16"
        }
      ],
      "name": "NewVote",
      "type": "event"
    },
    {
      "constant": true,
      "inputs": [],
      "name": "admin",
      "outputs": [
        {
          "internalType": "address",
          "name": "",
          "type": "address"
        }
      ],
      "payable": false,
      "stateMutability": "view",
      "type": "function"
    },
    {
      "constant": true,
      "inputs": [
        {
          "internalType": "uint256",
          "name": "",
          "type": "uint256"
        }
      ],
      "name": "candidates",
      "outputs": [
        {
          "internalType": "uint16",
          "name": "id",
          "type": "uint16"
        },
        {
          "internalType": "uint16",
          "name": "voteCount",
          "type": "uint16"
        },
        {
          "internalType": "string",
          "name": "name",
          "type": "string"
        },
        {
          "internalType": "address",
          "name": "candidateAddress",
          "type": "address"
        }
      ],
      "payable": false,
      "stateMutability": "view",
      "type": "function"
    },
    {
      "constant": true,
      "inputs": [],
      "name": "candidatesCount",
      "outputs": [
        {
          "internalType": "uint16",
          "name": "",
          "type": "uint16"
        }
      ],
      "payable": false,
      "stateMutability": "view",
      "type": "function"
    },
    {
      "constant": true,
      "inputs": [
        {
          "internalType": "address",
          "name": "",
          "type": "address"
        }
      ],
      "name": "votedForRecord",
      "outputs": [
        {
          "internalType": "string",
          "name": "",
          "type": "string"
        }
      ],
      "payable": false,
      "stateMutability": "view",
      "type": "function"
    },
    {
      "constant": true,
      "inputs": [
        {
          "internalType": "address",
          "name": "",
          "type": "address"
        }
      ],
      "name": "voters",
      "outputs": [
        {
          "internalType": "bool",
          "name": "",
          "type": "bool"
        }
      ],
      "payable": false,
      "stateMutability": "view",
      "type": "function"
    },
    {
      "constant": false,
      "inputs": [
        {
          "internalType": "string",
          "name": "_name",
          "type": "string"
        }
      ],
      "name": "registerAsCandidate",
      "outputs": [],
      "payable": false,
      "stateMutability": "nonpayable",
      "type": "function"
    },
    {
      "constant": false,
      "inputs": [
        {
          "internalType": "uint16",
          "name": "_id",
          "type": "uint16"
        }
      ],
      "name": "vote",
      "outputs": [],
      "payable": false,
      "stateMutability": "nonpayable",
      "type": "function"
    },
    {
      "constant": true,
      "inputs": [
        {
          "internalType": "uint16",
          "name": "_id",
          "type": "uint16"
        }
      ],
      "name": "getResultsByCandidate",
      "outputs": [
        {
          "internalType": "uint16",
          "name": "",
          "type": "uint16"
        }
      ],
      "payable": false,
      "stateMutability": "view",
      "type": "function"
    },
    {
      "constant": true,
      "inputs": [],
      "name": "getAnArray",
      "outputs": [
        {
          "internalType": "uint256[]",
          "name": "",
          "type": "uint256[]"
        }
      ],
      "payable": false,
      "stateMutability": "view",
      "type": "function"
    },
    {
      "constant": true,
      "inputs": [
        {
          "internalType": "address",
          "name": "_toCheck",
          "type": "address"
        }
      ],
      "name": "isCandidate",
      "outputs": [
        {
          "internalType": "bool",
          "name": "",
          "type": "bool"
        },
        {
          "internalType": "string",
          "name": "",
          "type": "string"
        },
        {
          "internalType": "uint16",
          "name": "",
          "type": "uint16"
        }
      ],
      "payable": false,
      "stateMutability": "view",
      "type": "function"
    }
  ],
  "bytecode": "0x60806040526000600360006101000a81548161ffff021916908361ffff16021790555034801561002e57600080fd5b50336000806101000a81548173ffffffffffffffffffffffffffffffffffffffff021916908373ffffffffffffffffffffffffffffffffffffffff1602179055506110a58061007e6000396000f3fe608060405234801561001057600080fd5b506004361061009e5760003560e01c8063b52087c111610066578063b52087c114610328578063d18825c3146103a1578063d51b9e9314610400578063ddb6e116146104d7578063f851a440146105095761009e565b80632d35a8a2146100a35780633477ee2e146100c95780633684acbb146101c15780637d81e7a91461027e578063a3ec138d146102cc575b600080fd5b6100ab610553565b604051808261ffff1661ffff16815260200191505060405180910390f35b6100f5600480360360208110156100df57600080fd5b8101908080359060200190929190505050610567565b604051808561ffff1661ffff1681526020018461ffff1661ffff168152602001806020018373ffffffffffffffffffffffffffffffffffffffff1673ffffffffffffffffffffffffffffffffffffffff168152602001828103825284818151815260200191508051906020019080838360005b83811015610183578082015181840152602081019050610168565b50505050905090810190601f1680156101b05780820380516001836020036101000a031916815260200191505b509550505050505060405180910390f35b610203600480360360208110156101d757600080fd5b81019080803573ffffffffffffffffffffffffffffffffffffffff169060200190929190505050610678565b6040518080602001828103825283818151815260200191508051906020019080838360005b83811015610243578082015181840152602081019050610228565b50505050905090810190601f1680156102705780820380516001836020036101000a031916815260200191505b509250505060405180910390f35b6102ae6004803603602081101561029457600080fd5b81019080803561ffff169060200190929190505050610728565b604051808261ffff1661ffff16815260200191505060405180910390f35b61030e600480360360208110156102e257600080fd5b81019080803573ffffffffffffffffffffffffffffffffffffffff169060200190929190505050610765565b604051808215151515815260200191505060405180910390f35b61039f6004803603602081101561033e57600080fd5b810190808035906020019064010000000081111561035b57600080fd5b82018360208201111561036d57600080fd5b8035906020019184600183028401116401000000008311171561038f57600080fd5b9091929391929390505050610785565b005b6103a96109e4565b6040518080602001828103825283818151815260200191508051906020019060200280838360005b838110156103ec5780820151818401526020810190506103d1565b505050509050019250505060405180910390f35b6104426004803603602081101561041657600080fd5b81019080803573ffffffffffffffffffffffffffffffffffffffff169060200190929190505050610a8d565b6040518084151515158152602001806020018361ffff1661ffff168152602001828103825284818151815260200191508051906020019080838360005b8381101561049a57808201518184015260208101905061047f565b50505050905090810190601f1680156104c75780820380516001836020036101000a031916815260200191505b5094505050505060405180910390f35b610507600480360360208110156104ed57600080fd5b81019080803561ffff169060200190929190505050610c80565b005b610511610ed9565b604051808273ffffffffffffffffffffffffffffffffffffffff1673ffffffffffffffffffffffffffffffffffffffff16815260200191505060405180910390f35b600360009054906101000a900461ffff1681565b6004818154811061057457fe5b90600052602060002090600302016000915090508060000160009054906101000a900461ffff16908060000160029054906101000a900461ffff1690806001018054600181600116156101000203166002900480601f0160208091040260200160405190810160405280929190818152602001828054600181600116156101000203166002900480156106485780601f1061061d57610100808354040283529160200191610648565b820191906000526020600020905b81548152906001019060200180831161062b57829003601f168201915b5050505050908060020160009054906101000a900473ffffffffffffffffffffffffffffffffffffffff16905084565b60026020528060005260406000206000915090508054600181600116156101000203166002900480601f0160208091040260200160405190810160405280929190818152602001828054600181600116156101000203166002900480156107205780601f106106f557610100808354040283529160200191610720565b820191906000526020600020905b81548152906001019060200180831161070357829003601f168201915b505050505081565b600060046001830361ffff168154811061073e57fe5b906000526020600020906003020160000160029054906101000a900461ffff169050919050565b60016020528060005260406000206000915054906101000a900460ff1681565b6003600081819054906101000a900461ffff168092919060010191906101000a81548161ffff021916908361ffff160217905550506107c2610efe565b6040518060800160405280600360009054906101000a900461ffff1661ffff168152602001600061ffff16815260200184848080601f016020809104026020016040519081016040528093929190818152602001838380828437600081840152601f19601f8201169050808301925050505050505081526020013373ffffffffffffffffffffffffffffffffffffffff1681525090506004819080600181540180825580915050906001820390600052602060002090600302016000909192909190915060008201518160000160006101000a81548161ffff021916908361ffff16021790555060208201518160000160026101000a81548161ffff021916908361ffff16021790555060408201518160010190805190602001906108e8929190610f44565b5060608201518160020160006101000a81548173ffffffffffffffffffffffffffffffffffffffff021916908373ffffffffffffffffffffffffffffffffffffffff160217905550505050600360009054906101000a900461ffff1661ffff167f18ea7f761829efaf012c14605e42754e8f171bb2b6b70cf25fef2bd09225167784843360405180806020018373ffffffffffffffffffffffffffffffffffffffff1673ffffffffffffffffffffffffffffffffffffffff1681526020018281038252858582818152602001925080828437600081840152601f19601f82011690508083019250505094505050505060405180910390a2505050565b6060806004604051908082528060200260200182016040528015610a175781602001602082028038833980820191505090505b509050600181600081518110610a2957fe5b602002602001018181525050600281600181518110610a4457fe5b602002602001018181525050600381600281518110610a5f57fe5b602002602001018181525050600481600381518110610a7a57fe5b6020026020010181815250508091505090565b6000606060008060009050600080905060008090505b600480549050811015610b375760048181548110610abd57fe5b906000526020600020906003020160020160009054906101000a900473ffffffffffffffffffffffffffffffffffffffff1673ffffffffffffffffffffffffffffffffffffffff168773ffffffffffffffffffffffffffffffffffffffff161415610b2a57600192508091505b8080600101915050610aa3565b508115610c33578160048281548110610b4c57fe5b906000526020600020906003020160010160048381548110610b6a57fe5b906000526020600020906003020160000160009054906101000a900461ffff16818054600181600116156101000203166002900480601f016020809104026020016040519081016040528092919081815260200182805460018160011615610100020316600290048015610c1f5780601f10610bf457610100808354040283529160200191610c1f565b820191906000526020600020905b815481529060010190602001808311610c0257829003601f168201915b505050505091509450945094505050610c79565b8160006040518060400160405280600a81526020017f4e6f7420466f756e642e000000000000000000000000000000000000000000008152509080905094509450945050505b9193909250565b600160003373ffffffffffffffffffffffffffffffffffffffff1673ffffffffffffffffffffffffffffffffffffffff16815260200190815260200160002060009054906101000a900460ff1615610d3a577f840163f12a0d39e1a0cf03737ffca94b93fa7ba8909825b43b612246e425126333604051808273ffffffffffffffffffffffffffffffffffffffff1673ffffffffffffffffffffffffffffffffffffffff16815260200191505060405180910390a1610ed6565b60018060003373ffffffffffffffffffffffffffffffffffffffff1673ffffffffffffffffffffffffffffffffffffffff16815260200190815260200160002060006101000a81548160ff02191690831515021790555060046001820361ffff1681548110610da557fe5b9060005260206000209060030201600001600281819054906101000a900461ffff168092919060010191906101000a81548161ffff021916908361ffff1602179055505060046001820361ffff1681548110610dfd57fe5b9060005260206000209060030201600101600260003373ffffffffffffffffffffffffffffffffffffffff1673ffffffffffffffffffffffffffffffffffffffff1681526020019081526020016000209080546001816001161561010002031660029004610e6c929190610fc4565b508061ffff167f65336ec93c7c9fe3efeea467b8cc72ccb72e0d2936b20788b7a47f61c99ca7ea33604051808273ffffffffffffffffffffffffffffffffffffffff1673ffffffffffffffffffffffffffffffffffffffff16815260200191505060405180910390a25b50565b6000809054906101000a900473ffffffffffffffffffffffffffffffffffffffff1681565b6040518060800160405280600061ffff168152602001600061ffff16815260200160608152602001600073ffffffffffffffffffffffffffffffffffffffff1681525090565b828054600181600116156101000203166002900490600052602060002090601f016020900481019282601f10610f8557805160ff1916838001178555610fb3565b82800160010185558215610fb3579182015b82811115610fb2578251825591602001919060010190610f97565b5b509050610fc0919061104b565b5090565b828054600181600116156101000203166002900490600052602060002090601f016020900481019282601f10610ffd578054855561103a565b8280016001018555821561103a57600052602060002091601f016020900482015b8281111561103957825482559160010191906001019061101e565b5b509050611047919061104b565b5090565b61106d91905b80821115611069576000816000905550600101611051565b5090565b9056fea265627a7a72315820c5215ca669e92c5b21246982ae892ee2d8e27a2d3f2c13c3ab862fedfb42ab4764736f6c63430005100032",
  "source": "// SPDX-License-Identifier: MIT\npragma solidity 0.5.16;\n\ncontract Election {\n\n    event NewCandidate(uint16 indexed _id, string name, address candidateAddress);\n    event NewVote(address voterAddress, uint16 indexed votedFor);\n    event DuplicateVote(address voterAddress);\n\n    address public admin;\n    mapping(address => bool) public voters;\n    mapping(address => string) public votedForRecord;\n    uint16 public candidatesCount = 0;\n    Candidate[] public candidates;\n\n    struct Candidate {\n        uint16 id;\n        uint16 voteCount;\n        string name;\n        address candidateAddress;\n    }\n    modifier adminOnly {\n        require(msg.sender == admin);\n        _;\n    }\n    constructor() public {\n        admin = msg.sender;\n    }\n\n    function registerAsCandidate(string calldata _name) external {\n        candidatesCount++;\n        Candidate memory newCandidate = Candidate(candidatesCount, 0, _name, msg.sender);\n        candidates.push(newCandidate);\n        emit NewCandidate(candidatesCount, _name, msg.sender);\n    }\n\n    function vote(uint16 _id) external {\n        if (voters[msg.sender]) {\n            emit DuplicateVote(msg.sender);\n        } else {\n            voters[msg.sender] = true;\n            candidates[_id - 1].voteCount++;\n            votedForRecord[msg.sender] = candidates[_id -1].name;\n            emit NewVote(msg.sender, _id);\n        }\n    }\n\n    function getResultsByCandidate(uint16 _id) external view returns (uint16){\n        return candidates[_id - 1].voteCount;\n    }\n\n    function getAnArray() external view returns (uint[] memory){\n        uint[] memory myarr = new uint[](4);\n        myarr[0] = 1;\n        myarr[1] = 2;\n        myarr[2] = 3;\n        myarr[3] = 4;\n\n        return myarr;\n    }\n\n    function isCandidate(address _toCheck) external view returns(bool, string memory, uint16){\n        bool found = false;\n        uint foundIndex = 0;\n        for (uint i=0;i<candidates.length;i++){\n            if (_toCheck == candidates[i].candidateAddress){\n                found = true;\n                foundIndex = i;\n            }\n        }\n        if (found){\n            return (found, candidates[foundIndex].name, candidates[foundIndex].id);\n        }\n\n        return (found, \"Not Found.\", 0);\n    }\n\n}\n\n",
  "sourcePath": "/home/frozo/Learn/Solidity/dikoelection/src/contracts/Election.sol",
  "compiler": {
    "name": "solc",
    "version": "0.5.16+commit.9c3226ce.Emscripten.clang"
  },
  "schemaVersion": "3.2.1",
  "updatedAt": "2020-08-04T19:29:16.837Z",
  "networkType": "ethereum",
  "devdoc": {
    "methods": {}
  },
  "userdoc": {
    "methods": {}
  }
}